:020000040800F2
:10000000B807001015040008BD2C0008D92200080C
:10001000B12C00084F200008A532000800000000A5
:100020000000000000000000000000003503000890
:10003000DD2100080000000091030008D52E000813
:100040002F0400082F0400082F0400082F040008C4
:100050002F0400082F0400082F0400082F040008B4
:100060002F0400082F0400082F0400082F040008A4
:100070002F040008552000082F0400082F04000852
:100080002F0400082F0400082F0400082F04000884
:100090002F0400082F0400082F0400082F04000874
:1000A0002F0400082F0400082F0400082F04000864
:1000B0002F04000800000000000000002F040008CA
:1000C0002F0400082F0400082F0400082F04000844
:1000D0002F040008C53100082F0400082F04000871
:1000E0002F0400082F04000800000000000000009A
:1000F0000000000000000000000000000000000000
:10010000000000002F040008000000002F04000879
:1001100000000000000000002F0400082F04000869
:100120002F0400082F0400082F0400082F040008E3
:100130002F04000800000000000000000000000084
:100140002F0400082F0400082F04000800000000FE
:100150002F0400082F0400082F0400082F040008B3
:100160002F0400082F0400082F04000800000000DE
:100170002F0400082F040008000000000000000009
:100180002F0400082F0400082F04000800F002F8D4
:1001900000F0C0F80AA090E8000C82448344AAF161
:1001A0000107DA4501D100F0B5F8AFF2090EBAE85F
:1001B0000F0013F0010F18BFFB1A43F0010318479B
:1001C0003C3103007C3103000A444FF0000C10F86E
:1001D000013B13F0070408BF10F8014B1D1108BFC5
:1001E00010F8015B641E05D010F8016B641E01F865
:1001F000016BF9D113F0080F1EBF10F8014BAD1CB5
:100200000C1B09D16D1E58BF01F801CBFAD505E0D2
:1002100014F8016B01F8016B6D1EF9D59142D6D32C
:1002200070470000103A24BF78C878C1FAD8520746
:1002300024BF30C830C144BF04680C607047000060
:100240000023002400250026103A28BF78C1FBD8DF
:10025000520728BF30C148BF0B6070476E2900F0BD
:10026000B384702901F0298066292FF08F806529D9
:100270002FF08C8067292FF0898061292FF08880EA
:1002800003681B0A28BF41F08001692900F0E08162
:10029000642900F0DD81752900F0DA816F2900F012
:1002A000B687782900F0F587E92900F05187E4291D
:1002B00000F04E87F52900F04B87EF2900F0B38757
:1002C000F82900F0F4870368DB0928BF41F08001BA
:1002D000632900F0CE86732900F0D386E32901F06C
:1002E0000D82F32901F01282002070471FB52FF014
:1002F00048F800F0EDFF0400002000212EF0B4FFCC
:10030000401C6060002000212EF098FFE0601FBDBF
:1003100010B510BD01F094FA1146FFF7E7FF27F082
:1003200033FA01F0BBFA03B4FFF7F2FF03BC01F0AC
:10033000BFFA00002C4B1968086800F05AB880F327
:100340000988BFF36F8F4FF0000080F3118870476A
:100350000000000008480068006880F308884FF03B
:10036000000080F3148862B661B6BFF34F8FBFF30D
:100370006F8F00DF00BF00BF08ED00E0DFF80C006A
:10038000016841F470010160704700BF88ED00E032
:10039000EFF30980BFF36F8F134B1A681EF0100F35
:1003A00008BF20ED108A20E9F04F106009B44FF02B
:1003B000500080F31188BFF34F8FBFF36F8F2EF083
:1003C000DDF84FF0000080F3118809BC1968086857
:1003D00000F014B81EF0100F08BF00F014B880F33E
:1003E0000988BFF36F8F704710000010EFF305808E
:1003F000704730C8B0E8C04FFFF7A1BF30C8B0E8C1
:10040000C04FFFF7E7BFB0EC088AB0EC08CAFFF7AF
:10041000E6BF00000948804709480047FEE7FEE7BD
:10042000FEE7FEE7FEE7FEE7FEE7FEE7FEE7FEE7A4
:1004300004480549054A064B704700001931000879
:100440008D010008C0850020B8070010C08700207B
:10045000B803001053EA020C00F069802DE9F04B5C
:100460004FF00006002B1FBFB3FA83F503FA05F423
:1004700024FA05F65E4012BF1643B2FA82F502FA7C
:1004800005F4C5F120051EBF22FA05FC44EA0C0460
:10049000203556EA044C4FEA144418BF641C4FF050
:1004A00000084FF00009904271EB030C39D300298A
:1004B00019BFB1FA81F701FA07F6B0FA80F700FA2E
:1004C00007F6C7F120071EBF20FA07FC46EA0C0614
:1004D0002037B6FBF4FCA7EB0507103F07F01F0B16
:1004E000CBF120060CFA0BFB2CFA06F644BFB34600
:1004F0000026202FA4BF5E464FF0000B5BEA060CDF
:1005000008BF4FF0010B19EB0B09ABFB027C48EB6A
:100510000608C01B06FB02CC0BFB03CC71EB0C01E5
:10052000C1E70B46024641464846BDE8F08B13B58D
:100530004FF000004FF00001AFF30080BDE81C4019
:10054000704700007CB51D4616460C00009001D097
:100550002044401E074B7B442A46694601903046A2
:1005600000F05DFD05461CB10020694600F06AFD03
:1005700028467CBDF50A00000FB47CB50C0009AA22
:10058000009001D02044401E084B7B4469460190F6
:10059000089800F044FD05461CB10020694600F0B3
:1005A00051FD28467CBC5DF814FB0000C10A000028
:1005B00070B5044685690068C10601D5302600E0A3
:1005C0002026C00707D070BDD4E9012130469047EE
:1005D000206A401C20626D1EF6D570BD70B50446C1
:1005E00085690078C00707D170BDD4E901212020BA
:1005F0009047206A401C20626D1EF6D570BD70B514
:100600000C460546012A05D02878800600D5EA69FF
:10061000002302E0012305E05B1C934202D2E05C70
:100620000028F9D1A869E618C01AA861286A1844F8
:1006300028622846FFF7BCFF04E0D5E9012114F841
:10064000010B9047B442F8D32846FFF7C7FF70BDAF
:100650002DE9F0410646002410687529314616A59B
:1006600010D000F046FA002802DA404213A507E055
:1006700031688A0701D512A502E0490704D511A502
:10068000012401E000F03EFA00210A2206F12407CD
:1006900009E0B0FBF2FCB0FBF2F302FB1C003030CF
:1006A00078541846491C0028F3D123462A46304680
:1006B000BDE8F04100F02FBA000000002D0000005E
:1006C0002B000000200000002DE9F05F8946044661
:1006D0004FF0000ADFF874B1FB44C0F820A02046B8
:1006E000E1688847002874D0252806D0D4E9012184
:1006F0009047206A401C2062F1E700265F462046B2
:10070000E16888472028054607DB312D05D2781996
:1007100010F8200C08B10643F1E7B00701D526F028
:100720000406C4F81CA00027C4F818A02A2D09D07C
:10073000284602F019FE38B304EB8708303DC8F8AC
:10074000185019E059F8041B204604EB8702916108
:10075000E1688847012F054618D1E069002820DAB2
:1007600026F020061DE0D8F8180000EB800005EB0D
:1007700040003038C8F818002046E1688847054630
:1007800002F0F2FD0028EED1012F0AD02E2D08D163
:100790002046E16888477F1C0546022F46F0200668
:1007A000C4DBA069002803DA404246F00106A061DC
:1007B000F00701D026F010066C2D0BD0682D09D063
:1007C0004C2D39D06A2D35D0742D35D07A2D33D0BB
:1007D00016E038E0E1682F4620468847B8420546D3
:1007E00009D16C2F26D04FF48060E1680643204683
:1007F0008847054604E06C2F1AD04FF480700643FA
:100800000DB3A5F14100192802D8203546F4006641
:100810004A462946204626604E46FFF71FFD80B116
:1008200001280BD0F61D26F0070000F1080956E755
:100830004020E4E78020D8E70020D6E706F104094D
:100840004DE7284652E7206A00F002B8F42A030078
:1008500030BCBDE8C09F40EA0103024630B59B07AB
:1008600010D14FF0013400E008C208C91D1B9D43A0
:1008700015EAC41FF8D013F0FF0102F8011B0DD0D8
:100880001B0AF8E711F8013B002B02F8013B05D0E9
:1008900011F8013B002B02F8013BF3D130BD10B53C
:1008A000431C02E010F8011B71B18107FAD14FF02F
:1008B000013202C88C1A8C4314EAC211F9D0C01A52
:1008C0000A0603D0C01E10BDC01A10BD0A0401D014
:1008D000801E10BD0902FCD0401E10BD032A40F24C
:1008E000308010F0030C00F0158011F8013BBCF1D2
:1008F000020F624498BF11F801CB00F8013B38BFEA
:1009000011F8013BA2F1040298BF00F801CB38BFF7
:1009100000F8013B11F0030300F02580083AC0F015
:10092000088051F8043B083A51F804CBA0E80810BD
:10093000F5E7121D5CBF51F8043B40F8043BAFF3F0
:100940000080D20724BF11F8013B11F801CB48BF4A
:1009500011F8012B24BF00F8013B00F801CB48BF80
:1009600000F8012B704710B5203AC0F00B80B1E8B9
:100970001850203AA0E81850B1E81850A0E81850D4
:10098000BFF4F5AF5FEA027C24BFB1E81850A0E8DD
:10099000185044BF18C918C0BDE810405FEA827CF7
:1009A00024BF51F8043B40F8043B08BF7047D2070E
:1009B00028BF31F8023B48BF11F8012B28BF20F8AF
:1009C000023B48BF00F8012B704702F0FF0343EAE7
:1009D000032242EA024200F002B84FF0000204296A
:1009E000C0F0128010F0030C00F01B80CCF1040C5E
:1009F000BCF1020F18BF00F8012BA8BF20F8022B92
:100A0000A1EB0C0100F00DB85FEAC17C24BF00F837
:100A1000012B00F8012B48BF00F8012B70474FF065
:100A2000000200B5134694469646203922BFA0E83E
:100A30000C50A0E80C50B1F12001BFF4F7AF09074A
:100A400028BFA0E80C5048BF0CC05DF804EB89003B
:100A500028BF40F8042B08BF704748BF20F8022B7E
:100A600011F0804F18BF00F8012B70474FF0013C88
:100A700050F8042B51F8043B9A4221D1A2EB0C030D
:100A8000934313EACC1317D150F8042B51F8043BCD
:100A90009A4215D1A2EB0C03934313EACC130BD16A
:100AA00050F8042B51F8043B9A4209D1A2EB0C03F5
:100AB000934313EACC13DBD04FF00000704700BF24
:100AC000D01A01BAB1FA81F101F0180122FA01F04D
:100AD000CB40C1F12001DBB2C0B2C01A2CFA01F345
:100AE000D11A914311EAC311E6D17047704770479C
:100AF000704709684A0501D540B27047C905FCD561
:100B000000B2704709684A0501D5C0B27047C905EF
:100B1000FCD580B270472DE9F0470D4699469246C4
:100B2000044600F124080168880604D5E06921F034
:100B30001001216000E00120A84201DD471B00E018
:100B40000027A1697A1902EB0900081AA061207830
:100B5000C00602D42046FFF72BFD002608E0D4E9AA
:100B600001211AF806009047206A401C761C20627A
:100B70004E45F4DB2078C0060AD52046FFF718FD65
:100B800006E0D4E9012130209047206A401C206211
:100B9000381EA7F10107F4DC07E0D4E9012118F8B9
:100BA00005009047206A401C2062281EA5F101051F
:100BB000F3DC2046FFF712FD2078000602D5022064
:100BC000BDE8F0870120FBE711680268006A530561
:100BD00001D508700AE0D30501D5088006E01306A8
:100BE00003D5C217C1E9000200E008600120704788
:100BF00070472DE9FF4F0C461E464FF0FF378BB074
:100C0000D2E90001DDF860800A908A46C1F30A55F6
:100C100005B93D46002108464FF00000BAF1000F2B
:100C200000F4400005DA00EB80004FF4400101EAD7
:100C300050004FEA9059B9F1010F00DDB9460A980A
:100C400050EA4A000ED044F61050A5F2FF35454355
:100C50002F14B8F1000F1ED07542291E1EDDC9F1F8
:100C600000021CE0B8F1010F4FF0000001D030216C
:100C700003E0F24305E02154401CB042FBDB304668
:100C80000022002121540B99C1F80880C1E90020FD
:100C90000FB000F0BCB9BD1B6D1CDEE74A4600DAA0
:100CA000694206A800F036FD06AB93E8070003ABE7
:100CB00083E8070050460A9900F001FE8DE807001E
:100CC000A0F500501F3800900398002D0ADD42F275
:100CD0001F014A460844002303A90390684601F017
:100CE0006AF809E0A0F500504A461F38002303A91E
:100CF0000390684601F074F88DE807000004000CCA
:100D000003D04FF0FF30410800E01046B8F1000F6B
:100D100003D00022009215461EE0751E05D400F097
:100D2000DBFA303262556D1EF9D5B3460122084315
:100D300002D000227F1C04E02078302801D100225C
:100D40007F1E002A099784D01DE0112D07DA00F0DC
:100D5000C3FA303262556D1C50EA0102F5D10843E6
:100D600002D00098C8B10EE00021681E05E0235CA7
:100D7000625C63542254401E491C8142F7DBAB463F
:100D8000A81B401E0990002004F80B000B98099A3C
:100D9000C0F80880C0E9002B7AE711264FF0000860
:100DA00057E72DE9F04F88460446D21D22F007018F
:100DB00091B0D1E90001CDE90A0102F09FFA0246A3
:100DC0000B98C00F01D02D2007E02068810701D5C6
:100DD0002B2002E0202101EAC000032A099001D063
:100DE000072A05DB03464146204600F03DFC0BE1A7
:100DF0002078800601D5E06900E00620B8F1650F93
:100E0000814606D0B8F1660F18D0B8F1670F70D1DF
:100E100031E00020B9F1110F009001DB112301E056
:100E200009F101030AAA01A90CA8FFF7E2FEDDE916
:100E30000C70002609F10105834647E001204B466E
:100E400000904FF000470AAA01A90CA8FFF7D1FEB5
:100E5000DDE90DB00C995D46002610B909F10100DD
:100E60000D18B9EB050003D4C0F1FF3609F10105F7
:100E7000A5EB09002BE0B9F1010F01DA4FF00109F0
:100E80000020B9F1110F0090484601DD112300E068
:100E900003460AAA01A90CA8FFF7ABFEDDE90C7016
:100EA0004D4600268346207800070AD4AB4500DA79
:100EB0005D4601A8012D04DD411911F8011C3029FE
:100EC00007D04F4502DA17F1040F04DA01208246F9
:100ED0000FE06D1EEEE7002F02DCED1B3E4403E049
:100EE000781CA84200DD7D1CB81B00F1010A4FF000
:100EF00000472078000703D4AA4501DB4FF0FF3AF2
:100F00000021B7F1004F0DF143088DF8431024D0B4
:100F100002202B23002F01DA7F422D230A21021EFB
:100F2000A0F1010000DC5FB197FBF1FC97FBF1F24F
:100F300001FB1C7C17460CF1300C08F801CDEEE7E4
:100F4000A8F1010003702188090501D5452100E0C1
:100F50006521A0F1010800F8011C09980FA9A1EB77
:100F60000807FF1D00B10120411901EBEA70A169DA
:100F70003844081A401EA0612078C00602D42046DA
:100F8000FFF716FB099828B1D4E901219047206AA0
:100F9000401C20622078C00622D52046FFF708FBBF
:100FA0001EE0002E04DBB34502DD01A8805D00E0F9
:100FB0003020D4E901219047206A401C2062761C31
:100FC000AAF101005FEA000A0AD100F081F9C068C5
:100FD0000168405CD4E901219047206A401C2062EE
:100FE000281EA5F10105DCDC07E0D4E9012118F891
:100FF000010B9047206A401C2062381EA7F10107B0
:10100000F3DC2046FFF7EAFA032011B041E630BCDA
:10101000BDE8C08F01694A1C02610878704700B5BD
:101020008FB0CDE901310021059105497944CDE921
:10103000031011466846FFF747FB0FB000BD0000E4
:10104000E5FFFFFF0A6802F8010B0A607047D1E96B
:1010500000239A4202D2531C0B601070704710B5E7
:10106000436913B1AFF3008001E0FFF7C8FA012034
:1010700010BD127800F124010A7000224A7001228A
:10108000EDE711684FF0FF32E9E700002DE9FF5F5F
:1010900015468A460446DFF8AC80F8440027D8E9B4
:1010A00000103E46CDE9001010E03AF816106A46EE
:1010B00002A800F0A1FB411C07D02178890603D5C6
:1010C000E269391891420DD80744761C20788006D1
:1010D00002D5E069B84205DDAE42E6DB3AF816001B
:1010E0000028E2D1A069C01BA0612046FFF760FA8A
:1010F000D8E90010CDE90010002017E03AF81810E8
:101100006A4602A800F078FBB0F1FF3F81460BD0A1
:1011100000250DF1080B05E0D4E901211BF80500BD
:1011200090476D1C4D45F7D308F10100B042804651
:10113000E4DB206A384420622046FFF74FFA00F0D3
:1011400003B80000462103003FBCBDE8C09F00007B
:101150002DE9F0418046D21D22F007020025D2E998
:101160000002F52915A614D0011E72F1000106DA5D
:101170000023D0EB030063EB020211A608E0D8F8CD
:1011800000108B0701D50FA602E0490701D50EA676
:1011900001251146002408F1240704E000F09CF822
:1011A00030323A55641C50EA0102F7D12B463246E0
:1011B00021464046BDE8F041FFF7ADBC000000000D
:1011C0002D0000002B0000002000000030B40021A2
:1011D00000F1240408E002F00705D208303542EAA5
:1011E0004372DB086554491C52EA0305F3D10468D5
:1011F000002310A2250707D5A40600D421B1C46995
:1012000001230DA2641EC46130BCFFF784BC10B57D
:10121000044621461068FFF775FC02462046BDE8EB
:1012200010400023D2E7D21D22F00701D1E90023AC
:10123000CCE700000000000030000000F0B40D46D4
:101240000188090502D5214C7C4402E01F4C7C44F6
:101250000E34002100F1240608E002F00F07120905
:10126000E75D42EA03721B097754491C52EA0307FF
:10127000F3D102780023120704D5702D06D009B1EE
:10128000022311342246F0BCFFF745BC0123103481
:10129000F8E770B504460D4621461068FFF732FCAA
:1012A000024629462046BDE870400023C6E7D21D0D
:1012B00022F00703D3E90023C0E70368126843F074
:1012C000200303600823C3610023B7E7A01F0300C6
:1012D000004870478085002030B5B0F10A024FEA1F
:1012E000900E71F100034EEA817EB0EB0E0061EBCF
:1012F00091014FEA101E4EEA017E10EB0E0041EB09
:1013000011114FEA102E4EEA016E10EB0E0041EB68
:1013100011214FEA104E4EEA014E10EB0E0041EB48
:101320001141401841F100014FEAD00040EA4170FC
:101330004FEAD10110EB80054FEA810444EA907432
:1013400044EB01046D1944EB0404521BA3414FF01C
:10135000000348BF0A3200D530BD401C41F10001F6
:1013600030BD00002DE9F04F04460D46D21D22F09D
:10137000070089B0D0E900974846394601F0BEFF22
:101380000246F80F01D02D2307E02068810701D520
:101390002B2302E0202101EAC0038DF820300BB19D
:1013A000012000E00020032A824601D0072A04DB46
:1013B0002946204600F058F93FE12078800601D404
:1013C0000D2500E0E569C7F30A560D2D49DA002125
:1013D0004FEA175B08464FF00000002F00F4400072
:1013E00007DA00EB80004FF4400100EBD07001EA17
:1013F00060008115012901DD4FF0FF3100224FEA25
:10140000850CBCF1180F06D31346ACF118004FF051
:101410008052C24003E04FF4801323FA0CF30CF126
:101420000C0CBCF1200F04D3ACF1200C09FA0CF029
:1014300001E007FA0CF000294FF0004801DD18B96F
:101440000FE00ED140450CD319EB02095F4121B9E1
:10145000404502D19F4329EA0209BBEB175F00D048
:10146000761C2088000502D57B48784402E07A4843
:101470007844193808AA302302F80A30037C0AF1AC
:101480000101002E0AF1020A53546A4602DC4FF0B1
:10149000300101E04FF031014FF001088DF80010EC
:1014A00002D0A6F2FF3603E059EA470100D06B4EA6
:1014B000002D02DC2178090704D54FF002082E2107
:1014C0008DF80110C44600210BE0C7F303433F0130
:1014D000C35C491C6D1E02F80830052908F101089B
:1014E00001DA002DF1DC00210CE000EB1973491C3E
:1014F0001B786D1E082902F808304FEA091908F117
:10150000010801DA002DF0DC21688B0602D516E017
:10151000A8F10108E04505DD02EB080313F8013CE2
:10152000302BF5D0B8F1000F09DD02EB080313F8FA
:10153000013C2E2B03D1090701D4A8F10108002D8D
:1015400005DD3E2102F808106D1E08F10108407CFF
:10155000002E02F8080008F1010804DA2D20764276
:1015600002F8080002E02B2002F808000A214FF4DC
:101570007A70864208F101080BDB96FBF0F33033FA
:1015800002F8083096FBF0F308F1010800FB13663F
:1015900001E0642E0CDB642096FBF0F3303302F89C
:1015A000083096FBF0F308F1010800FB136601E038
:1015B0000A2E06DB96FBF1F0303002F8080008F145
:1015C000010896FBF1F001FB1060303002F80800D2
:1015D000A16908F1010808EB050202EB0A00081AEC
:1015E000A0612078C00602D42046FEF7E1FF216A00
:1015F00008AE01EB0A00206204E0D4E9012116F8EC
:10160000010B9047BAF1010AF7D22078C00602D543
:101610002046FEF7CDFF6E4609E016F8010B3E2886
:101620000FD0D4E901219047206A401C2062B8F114
:101630000108F2D22046FEF7D1FF09B0032000F0E6
:101640000FB8206A2844206203E0D4E90121302049
:1016500090476D1EEBD3F8E7B91D030002FCFFFFB6
:1016600030BCBDE8C08F00002DE9F0411F460446A4
:1016700003260168072A01F4006004DB08B116A5FF
:1016800005E016A503E008B115A500E015A521F0B9
:1016900010002060A069C01EA0610FB1401EA061B3
:1016A0002046FEF785FF4FB1D4E901213846904727
:1016B000206A401C2062C01C206206E0206AFAE713
:1016C000D4E9012115F8010B9047761EF8D2204687
:1016D000FEF784FFBDE8F0814E414E006E616E0062
:1016E000494E4600696E660010B5436913B1AFF309
:1016F000008001E0FFF7CAFC012010BD128800F154
:10170000240182840022C2840122EDE711684FF097
:10171000FF32E9E72DE9F047814616468AB03548A1
:1017200078440DC88DE80D0032487844801C03AC25
:101730000DC884E80D0041F69B300844372190FB2A
:10174000F1F290FBF1F5A5F1800501FB12041B3CC1
:1017500002D56442012000E00020DFF898A0804616
:101760000027FA44AAF1BE0A0EE0E0070AD032468A
:10177000684607EB470101230AEB810100F030FBCB
:101780008DE8070064107F1C002CEED1194F7F44B8
:10179000AE3F19E0E80715D007EB04100DF1180A69
:1017A00090E80E008AE80E00C068F04201D1981956
:1017B00008903246012306A903A800F011FB03ABF1
:1017C00083E807006D10641C002DE3D14FF0010386
:1017D00032466946B8F1000F03A802D000F0EBFAD8
:1017E00001E000F0FDFAC9E90001C9F808200AB0DB
:1017F000BDE8F087941B030070B516460C460546FD
:1018000000F044F8036893F80101012806D0FF2C8A
:101810000FD8185D68B101202C7070BDD3F8070196
:101820003246214603F2071303442846BDE87040C0
:1018300018474FF0FF3070BD0048704760850020AA
:101840007546FFF7F9FFAE4605006946534620F09E
:101850000700854618B020B5FEF7EAFDBDE8204038
:101860004FF000064FF000074FF000084FF0000B5C
:1018700021F00701AC46ACE8C009ACE8C009ACE80F
:10188000C009ACE8C0098D467047000010B5FFF7ED
:101890001FFD001D10BD00BFD1D9020010B50446C8
:1018A000AFF300802046BDE81040FEF73CBD0000CD
:1018B00001491820ABBEFEE72600020070475FEA30
:1018C000400C08BF91F0000F4FEA8C234FEAC12271
:1018D00043EA51514FEA1C5018BF00F5F0404FEA5F
:1018E000300018BF41F000415FEA6C5C00F02980D5
:1018F000BCF1FF3F08BF40F080407047130C06BFAB
:1019000012044FF0100C4FF0000C130E04BF120223
:101910000CF1080C130F04BF12010CF1040C930F0F
:1019200004BF92000CF1020CD30F04BF52000CF163
:10193000010C11464FF00002A0F11F00A0EB0C00BB
:10194000704711F0004F08BF704731F000413FF47D
:10195000D5AF0B0C06BF09044FF0100C4FF0000C74
:101960000B0E04BF09020CF1080C0B0F04BF090198
:101970000CF1040C8B0F04BF89000CF1020CCB0F8F
:1019800004BF49000CF1010CCCF12003A0EB0C00CA
:1019900022FA03F302FA0CF241EA030100F101001A
:1019A000704720F07F4C80EA030023F07F47ACEBC8
:1019B000070303F57C5300F0004003F1FF032DE91A
:1019C00080494FEA154B09B44FEA144325EA0B4E00
:1019D00024EA03480FF2042606EB132749083E7851
:1019E0005FEA320203FB0667C7F5000707FB06F64E
:1019F0004FEA54374FEAD64606F1020607FB066C5B
:101A0000CCF1005C4FEA1C472CEA074C07FB06F4BC
:101A10000CFB06F504EB15464FEA961634BF002082
:101A20004FF000404FEAD13706FB07FC4FEA1C4C51
:101A30000CFB0BF7D21B03FB0CF761EB07010CFB54
:101A40000EF7B0EB074072EB17420CFB08F734BF00
:101A5000A2EB0742B2EB074261EB17414FEA0C449D
:101A60004FEA910706FB07FC4FEA1C4C0CFB0BF7F7
:101A7000B0EBC74072EB573203FB0CF734BFA2EB5D
:101A8000C742B2EBC74261EB57310CFB0EF7B0EB2C
:101A9000C70072EB57720CFB08F734BFA2EBC7020A
:101AA000B2EBC70261EB5771039F4FEA816141EAD4
:101AB000921104EBCC044FEAD1374FEA826206FB65
:101AC00007FC42EA90124FEA80604FEA1C4C0CFB84
:101AD0000BF7D21B03FB0CF761EB07010CFB0EF7B6
:101AE000B0EB074072EB17420CFB08F734BFA2EBD8
:101AF0000742B2EB074261EB17414FEA8C554FEAC0
:101B0000910704EB9C2406FB07FC4FEA1C4C0CFBE2
:101B10000BF7B0EBC74072EB573203FB0CF734BF47
:101B2000A2EBC742B2EBC74261EB57310CFB0EF799
:101B3000B0EBC70072EB57720CFB08F734BFA2EB97
:101B4000C702B2EBC70261EB577115EB4C254FEAA8
:101B5000816141EA92114FEA82624FEAD13742EA4B
:101B6000901206FB07FC44F100044FEA80604FEA44
:101B70001C4C0CFB0BF7D21B03FB0CF761EB0701B2
:101B80000CFB0EF7B0EB074072EB17420CFB08F7AB
:101B900034BFA2EB0742B2EB074261EB174115EBF2
:101BA0001C154FEA813141EA92414FEA823242EA02
:101BB00090424FEA80304FEA0C7644F1000448EA44
:101BC00003434EEA0B484FF0000EB2EB080C71EBEA
:101BD000030724BF624639464EEB0E0E4FF0000B52
:101BE0000018524149414BEB0B0BB2EB080C71EB67
:101BF00003077BF1000B24BF624639464EEB0E0E05
:101C00004FF0000B0018524149414BEB0B0BB2EB6C
:101C1000080C71EB03077BF1000B24BF62463946C9
:101C20004EEB0E0E51EA020718BF46F0010616EB06
:101C30000E7655F1000254F1000103D5BDE889018B
:101C4000BDE80088BDE88901BDE80048B6195241E9
:101C500041EB0101A3F10103704780807F7E7D7C11
:101C60007B7A7978777676757473727171706F6E2E
:101C70006E6D6C6C6B6A6A696868676666656464D9
:101C8000636362616160605F5F5E5E5D5D5C5C5B63
:101C90005B5A5A59595858575756565555555454D2
:101CA000535352525251515050504F4F4F4E4E4D30
:101CB0004D4D4C4C4C4B4B4B4A4A4A49494948487C
:101CC00048474747474646464545454444444443BC
:101CD00043434342424242414141002B9C4630D45F
:101CE00077002BD01CB54FEA370703B44FF0100034
:101CF0004FF01001BAF1000F06D0BCF1000FDCBFAD
:101D000040F0080040F008014FF000000FBCBDE8B3
:101D100010400BF1010BBBF1010F08BF5FEA170781
:101D200022BF12F1010211F101014FF0004143F114
:101D3000000300F0004043EA00007047F9D3570861
:101D4000D0E746EA064613F1400F4FEA16461FDD7C
:101D500013F1200FDFBF16430A46002120335B42F8
:101D6000BED0C3F1200746EA064602FA07F74FEA5B
:101D7000164646EA0706C3F1200722FA03F201FAE3
:101D800007F721FA03F14FF0000342EA0702A7E741
:101D900046EA020646EA06464FEA164646EA0106C3
:101DA000BCBF46EA0646360C4FF000034FF0000277
:101DB0004FF0000194E72DE9804C9A46934670B4A9
:101DC00091E8380007C831EA400C48BF34EA430CB8
:101DD00003D5FFF7E6FDFFF780FFF0BCBDE8008C00
:101DE0002DE9804C9A46934670B491E8380007C8B4
:101DF00010F0804F08BF13F0804F03D100F005F8BA
:101E0000FFF76BFFF0BCBDE8008C20F07F4780EA55
:101E1000030023F07F4C07EB0C03A3F57C5300F089
:101E20000040A3F1FE0392F0000F00F0B38095F0A4
:101E3000000F00F077802DE901494FEA11404FEA89
:101E4000144621EA004800FB06FC24EA064708FB8A
:101E500006F607FB08F800FB07F718EB06484CEB03
:101E6000164C4FEA124B18EB07484FEA15464CEB5D
:101E7000174022EA0B4E0BFB06FC25EA06470EFB39
:101E800006F607FB0EFE0BFB07F71EEB064E4CEBB0
:101E9000164C4FF000061EEB074E4CEB174B18EBA1
:101EA0000B0840F1000018EB0E0B58EB000840F156
:101EB00000008F1A4FF000013CBFC943661B14BFDE
:101EC000B5EB040C00213CBFC943F61B4FEA174495
:101ED0004EEA8E0E27EA04454FEA1C4704FB0762D0
:101EE0002CEA074C05FB07F70CFB05F604FB0CFC82
:101EF00016EB074642EB174216EB0C4642EB1C4230
:101F00001BEB060658EB0202414146EA9E0601D54C
:101F1000BDE80189B619524141EB0101A3F101036A
:101F2000BDE801894FEA14454FEA114724EA054606
:101F300021EA074C05FB07F406FB07F70CFB06F14B
:101F400005FB0CFC11EB074144EB17444FEA124729
:101F500011EB0C4144EB1C4422EA074C05FB07F251
:101F600006FB07F70CFB06F605FB0CFC16EB074619
:101F700042EB174216EB0C4642EB1C456A1854F133
:101F8000000148BF7047B619524141EB0101A3F16E
:101F90000103704795F0000F37D04FEA11424FEA26
:101FA000144721EA024624EA074C02FB07F106FB2C
:101FB00007F70CFB06F402FB0CFC14EB074441EBA7
:101FC00017414FEA154714EB0C4441EB1C4125EA3D
:101FD000074C02FB07F506FB07F70CFB06F602FBB6
:101FE0000CFC16EB074645EB174516EB0C4645EB8C
:101FF0001C42121951F1000148BF7047B6195241F5
:1020000041EB0101A3F1010370474FEA14454FEA88
:10201000114724EA054621EA074C05FB07F106FBB8
:1020200007F70CFB06F24FF0000605FB0CFC12EB69
:10203000074241EB174112EB0C4251EB1C4148BFE8
:102040007047921841EB0101A3F10103704700BFF3
:10205000FEE7000010B500BF0A480068C0F340204A
:1020600078B100BF4FF400700649486000BF0221FC
:10207000044800F05BFA01200349087003A00EF049
:1020800099FA10BD000002403C000020444D412060
:102090005472616E7366657220436F6D706C657407
:1020A000650D0A0010B58CB001203149896C0143DF
:1020B0002F4A91641146896C0140009100BF00BF16
:1020C0002C2101A8FEF7ABFC2A48019000200290C9
:1020D000102003900020049005908020069000209E
:1020E0000790089009904FF400500B9003200A903D
:1020F00001AA0221204800F027FA1F4802210246C7
:102100001E4B5B5CD35843F002031C4C645C1351C0
:1021100000BF0D200021002804DB0A07130E184A17
:10212000135406E00A07140E164A00F00F031B1F93
:10213000D45400BF0D2000280DDB00BF00BF00F00D
:102140001F02012191404209920002F1E022C2F8EF
:10215000001100BF00BF00BF00BF06480C38406838
:1021600040F0020003490C39486000BF0CB010BDBC
:10217000001002400C30014000000240E4F302086D
:1021800000E400E018ED00E010B5084B5968084B7A
:102190001B684FF47A74B3FBF4F303FB00F200BF47
:1021A000024B5B685B1A9342FAD310BD001000E04B
:1021B0000C0000100748006840F080700549086076
:1021C0000020054948600846006840F001000860AA
:1021D00070470000FCED00E0001000E070470000D8
:1021E00010B506480068401C04490860084604A170
:1021F0000268064800681AF099FE10BD1C01001024
:10220000436F756E743A20256C750000180100103C
:102210002DE9F84300BF13F0BFFE054613F018FF89
:102220000646304619F00AFE074620A138461AF045
:1022300035FE14230022022138461CF0E6F8304611
:1022400019F0FCFD1C4908601C481DA102681A48D1
:1022500000681AF06BFE142000230E22394600900D
:10226000154800681CF0E3F8304611F0C7FF8046BF
:1022700028226421404621F00AF86FF0130300225F
:10228000052140461CF0C1F8404619F0D7FD044630
:102290000EA120461AF002FE254600231A46092107
:1022A00028461CF0B2F800BFBDE8F88348656C6CA6
:1022B0006F204C56474C2100180100101C010010E3
:1022C000436F756E743A20256C750000436C69632A
:1022D0006B204D652100000000BFFEE710B5042112
:1022E0004FF0904000F023FA1420FFF74DFF042137
:1022F0004FF0904000F031FA1420FFF745FF10BD79
:1023000000B591B018210BA8FEF789FB282101A880
:10231000FEF785FB4FF480505849096E0143574A38
:1023200011661146096E0140009100BF00BF0120F7
:102330001146C96C0143D1641146C96C014000913A
:1023400000BF00BF1C200B9001200C9003200D90BB
:1023500000200E900F900BA94FF0904000F050F924
:10236000022220214FF0904000F0FBF905222021AD
:102370004FF0904000F0DDF9022280214FF09040B4
:1023800000F0EFF9052280214FF0904000F0D1F9E4
:10239000FFF7A4FF01A800F01EFB002001904FF4FE
:1023A000827002904FF4E06003900020049005904A
:1023B0004FF40070069008200790002008900990C4
:1023C00001A92F4800F0C8FA4FF400702C490968A1
:1023D00021F4007101432A4A11601146496821F035
:1023E000040141EA1041516000BF00BF104600687F
:1023F00040F040001146086000BFFFF753FECF20B9
:1024000000F052FF002000F064FFC12000F061FFE7
:10241000302000F05EFFED2000F046FF642000F069
:1024200058FF032000F055FF122000F052FF8120DA
:1024300000F04FFFE82000F037FF852000F049FF53
:10244000102000F046FF7A2000F043FF362000F015
:102450002BFF362000F03DFF3A2000F025FF5520ED
:1024600000F037FF112000F01FFF7820FFF78CFEEF
:10247000292000F019FF11B000BD0000001002403B
:10248000003001402DE9F04104460D4616461F4636
:102490002A2000F009FF201200F01BFFE0B200F03C
:1024A00018FF301200F015FFF0B200F012FF2B20E1
:1024B00000F0FAFE281200F00CFFE8B200F009FF6D
:1024C000381200F006FFF8B200F003FFBDE8F0811B
:1024D00010B5134800F0D8FA25200521002804DBA8
:1024E0000A07130E0F4A135406E00A07140E0E4A89
:1024F00000F00F031B1FD45400BF252000280DDB64
:1025000000BF00BF00F01F0201219140420992006C
:1025100002F1E022C2F8001100BF00BF00BF10BDF1
:102520000038014000E400E018ED00E010B502467C
:10253000044B5B5CD35823F00103024C645C1351E1
:1025400010BD0000E4F3020870B504460D461646BF
:10255000D6E9021211433269114372691143B2691B
:102560001143F2691143B26A41EA02002146174A57
:10257000525D8A5847F6F0739A430243134B5B5DF2
:10258000CA5000BF706800BF104A525D0A44D06054
:1025900000BF306800BF0D4A525D0A44906000BF22
:1025A000306A00BF094A525D0A4452686FF30F0255
:1025B0000243064B5B5D0B445A6000BF2946204630
:1025C000726A00F005F8002070BD000094F3020864
:1025D00030B5D0F8A8301F2404EA81050F24AC40A0
:1025E000A3431F2404EA81050F24AC4094FAA4F409
:1025F000B4FA84F402FA04F42343C0F8A83030BDDE
:10260000F0B502460B46186890FAA0F0B0FA80F4D4
:1026100087E00120A0401D6805EA000100297FD065
:102620005868012802D0586802281DD1986895681A
:1026300091FAA1F6B6FA86F677000326BE40B543B6
:1026400091FAA1F6B6FA86F6760000FA06F6354358
:10265000956000BFDD6818685668864300FB05F783
:102660003E43566000BF00BF1869D56891FAA1F6D5
:10267000B6FA86F677000326BE40B54391FAA1F676
:10268000B6FA86F6760000FA06F63543D56000BF46
:10269000586802282DD1FF2914D85869156A91FA73
:1026A000A1F6B6FA86F6B7000F26BE40B54391FAFA
:1026B000A1F6B6FA86F6B60000FA06F635431562BC
:1026C00000BF16E05869556A0E0A96FAA6F6B6FAE1
:1026D00086F6B7000F26BE40B5430E0A96FAA6F658
:1026E000B6FA86F6B60000FA06F63543556200BF24
:1026F00000BF5868156891FAA1F6B6FA86F6770019
:102700000326BE40B54391FAA1F6B6FA86F67600E6
:1027100000FA06F63543156000BF00E000E000BF98
:10272000641C1868E04000287FF473AFF0BD81623C
:10273000704730B5036A91FAA1F4B4FA84F4A500A5
:102740000F24AC40A34391FAA1F4B4FA84F4A4009A
:1027500002FA04F42343036230BD81617047816152
:10276000704730B5036891FAA1F4B4FA84F46500B7
:102770000324AC40A34391FAA1F4B4FA84F46400B6
:1027800002FA04F42343036030BD4FF47A71B0FBC6
:10279000F1F2521E4FF0E0235A6100229A610522A5
:1027A0001A6100BF704700002DE9F0410446002582
:1027B000032C29D1204600F085F8B0F5403F17D012
:1027C0006FF44031084420B1012806D0022819D105
:1027D00008E000F0A9FA054615E000F07DF800B128
:1027E000374D10E000F080F808B14FF400450AE0E2
:1027F00000F09AFA074600F063FA064600F082FA03
:10280000054600E000BF57E00C2C29D1204600F01F
:1028100059F8B0F5402F17D0A0F54020001F20B187
:10282000042806D0082819D108E000F07DFA0546F2
:1028300015E000F051F800B1214D10E000F054F81F
:1028400008B14FF400450AE000F06EFA074600F0C8
:1028500037FA064600F044FA054600E000BF2BE0D8
:10286000302C29D1204600F02DF8B0F5401F17D0AC
:10287000A0F54010103820B1102806D0202819D11A
:1028800008E000F051FA054615E000F025F800B127
:102890000B4D10E000F028F808B14FF400450AE0B5
:1028A00000F042FA074600F00BFA064600F018FA6C
:1028B000054600E000BF00BF2846BDE8F0810000EB
:1028C0000024F400014603480068084040EA014043
:1028D000704700008810024002480068C0F3802062
:1028E000704700000010024002480068C0F340003A
:1028F00070470000901002400248006800F0F000AD
:1029000070470000001002400248006800F4706048
:10291000704700009410024002480068C0F3C000F5
:1029200070470000001002400248C06800F07000CC
:1029300070470000001002400248C06800F0030029
:1029400070470000001002400248C068C0F3062033
:10295000704700000010024030B50246012300BF5E
:102960001068C0F38010A0BBD1E900042043CC68FC
:1029700020430C6920434C6920438C692043CC6977
:1029800020430C6A204314684FF6BF75AC432043C4
:1029900010604C69886840EA1440546840F6047539
:1029A000AC43204350608868B0F5006F07D218032D
:1029B000546824F480540443546000BF00BF086A84
:1029C000B0F5005F04D1486A84B2146100BF00BF53
:1029D0000023184630BD0021016041604FF4E061E2
:1029E00081600021C160016141618161C161016259
:1029F00007214162704700000149086070470000EC
:102A00000C00001010B5024613681C48824202D028
:102A1000B2F1804F04D123F070004C6840EA040307
:102A20001648824208D0B2F1804F05D01448824245
:102A300002D01448824204D123F44070CC6840EAAA
:102A4000040313608868D06200BF0888906200BFEA
:102A50000A48824205D00A48824202D0094882428E
:102A600003D10869106300BF00BF00BF506940F088
:102A70000100506100BF002010BD0000002C01408B
:102A8000004001400044014000BF00BF50E8002F5B
:102A900042F0200140E80012002AF7D100BF704741
:102AA0002DE9F04104460D4601270026204600F09E
:102AB00065F8002857D1E968686808432969084320
:102AC000A96908432168294A114008432060A86881
:102AD000616821F440510143616000BF6869A168E9
:102AE00021F440710143A16000BF2148844204D118
:102AF0000320FFF759FE06460EE01E48844204D12B
:102B00000C20FFF751FE064606E01B48844203D125
:102B10003020FFF749FE06462EB3286818B3002779
:102B20003146AB692868B3F5004F12D14FEA41082E
:102B300008EB5008B8FBF0F81FFA88F24FF6F0786F
:102B400002EA080CC2F342084CEA080CC4F80CC0B4
:102B500007E001EB5008B8FBF0F81FFA88F8C4F85A
:102B60000C8000BF00BF3846BDE8F081F369FFEF7D
:102B70000038014000440040004800400146086819
:102B800000F00100704701857047000000B587B074
:102B9000182101A8FDF743FF04200E49C96C014329
:102BA0000C4AD1641146C96C0140009100BF00BFBE
:102BB000012001900290002003900490059001A94B
:102BC0000548FFF71DFD01200349886200BF07B0DB
:102BD00000BD0000001002400008004800B58FB0A2
:102BE0001C2108A8FDF71BFF182102A8FDF717FFFD
:102BF0004FF440302C49096821EA104182B2114358
:102C0000294A883AC2F8881000BF4FF48040114624
:102C1000096E014311661146096E0140019100BF22
:102C200000BF01201146C96C0143D1641146C96C33
:102C30000140019100BF00BF4FF4C060029002202C
:102C40000390032004900020059006900720079031
:102C500002A94FF09040FFF7D3FC4FF4E130089009
:102C6000002009900A900B900C200C9000200D90F1
:102C70000E9008A90D48FFF713FF00BF0B484068EE
:102C800020F49040094948600846806820F02A00F6
:102C9000886000BF00BF0846006840F0010008607F
:102CA00000BF0FB000BD0000881002400038014096
:102CB00000BFFEE710B5FFF769FF10BD00BFFEE7DC
:102CC000014600BF0448806800F0F0000009034A94
:102CD000125C21FA02F07047001002409CF30208D7
:102CE000014600BF0548806800F4E060044A02EB3A
:102CF0001020027821FA02F0704700000010024014
:102D0000ACF30208014600BF0548806800F460503B
:102D1000044A02EBD020027821FA02F0704700004A
:102D200000100240ACF3020810B500BF29488068CB
:102D300000F00C0030B1042822D0082822D00C2842
:102D400026D121E0FFF7E8FD60B9FFF7E5FD10B1FE
:102D5000FFF7D2FD01E0FFF7D7FD000A1E4951F849
:102D600020000BE0FFF7D8FD10B1FFF7C5FD01E033
:102D7000FFF7CAFD0009184951F82000044625E074
:102D8000164C23E0164C21E000F02CF804461DE020
:102D9000FFF7C2FD60B9FFF7BFFD10B1FFF7ACFD53
:102DA00001E0FFF7B1FD000A0B4951F820000BE0EC
:102DB000FFF7B2FD10B1FFF79FFD01E0FFF7A4FDA3
:102DC0000009054951F82000044600BF00BF204615
:102DD00010BD000000100240B4F302080024F4000B
:102DE00000127A0070B5FFF7A7FD0546012D04D04B
:102DF000022D20D0032D22D11FE0FFF78DFD60B9F9
:102E0000FFF78AFD10B1FFF777FD01E0FFF77CFDCA
:102E1000000A254951F820000BE0FFF77DFD10B1B5
:102E2000FFF76AFD01E0FFF76FFD00091E4951F849
:102E30002000044621E01D4C1FE01D4C1DE0FFF763
:102E40006BFD60B9FFF768FD10B1FFF755FD01E0BC
:102E5000FFF75AFD000A144951F820000BE0FFF774
:102E60005BFD10B1FFF748FD01E0FFF74DFD0009E4
:102E70000D4951F82000044600BF00BFFFF754FD84
:102E8000012101EB1010B4FBF0F6FFF75DFD4643A6
:102E90000848C06800F0C060012101EB50604000AC
:102EA000B6FBF0F070BD0000B4F302080024F4009B
:102EB00000127A00001002400549087300BF00BFED
:102EC00000BF03498968C1F3C0110029F8D17047D8
:102ED0000030014010B500BF502080F31188BFF3CF
:102EE0004F8FBFF36F8F00BF2BF04CFF18B14FF027
:102EF00080500449086000BF002080F3118800BFA3
:102F000010BD000004ED00E02DE9F84301207A49EE
:102F1000096E0143784A11661146096E014000911D
:102F200000BF00BF00071146896D0143916511463E
:102F3000896D0140009100BF00BF052002466F4B24
:102F400019684FF6FF0319406D4B0B4343EA02210A
:102F50006A4B196000BF811F1B68C3F30220022463
:102F600000250346C3F1070CBCF1040F02D94FF052
:102F7000040C01E0C3F1070C674603F1040CBCF13B
:102F8000070F02D24FF0000C01E0A3F1030C6646DC
:102F90004FF0010C0CFA07FCACF1010C0CEA040C2C
:102FA0000CFA06FC4FF0010808FA06F8A8F101082F
:102FB00008EA05084CEA080200BF002904DB1007F4
:102FC000030E5048435407E01007040E4B480C30E2
:102FD00001F00F031B1FC45400BF04204A490968B5
:102FE00021F007010143484A116000BF00BF00BF44
:102FF0004548006800F007000428F8D1C0014349A3
:10300000096821F4C0610143404A116000BF00BF5C
:1030100000BF3E484069C0F380200028F8D100BFBF
:103020003548006840F480303349086000BF00BF75
:1030300000BF31480068C0F340400028F8D00320AA
:10304000002114220B4640EA010444EA02241C43F6
:10305000294DED682E4E35402C43274DEC6000BFC6
:1030600000BF2846C06840F080702946C86000BF95
:1030700000BF0846006840F08070086000BF00BFD5
:1030800000BF1D480068C0F340600028F8D003204E
:103090001949896821F003010143174A916000BF73
:1030A00000BF00BF1448806800F00C000C28F8D165
:1030B00000201149896821F0F00101430E4A916016
:1030C00000BF00BF1146896821F4E06101439160AF
:1030D00000BF00BF1146896821F46051014391602F
:1030E00000BF0C48FFF751FB0A48FFF785FCFFF7CC
:1030F00061F8BDE8F8830000001002400CED00E02C
:103100000000FA0500E400E00020024000700040EA
:103110008C80FFF900B4C4040348006840F47000D8
:10312000014908607047000088ED00E010B5FFF726
:1031300055FDFFF7CDF900F0ABF810BD2DE9F041DA
:1031400080460F46144600BF1B4890F80404002830
:10315000FAD1B4F5007F02DD4FF4007000E02046A4
:1031600005462A4639461548FDF7B8FB00201249A6
:10317000A1F806040846A0F80854012081F80404C8
:103180000846B0F80664701C0A46A2F806040B480C
:10319000815D0B48FFF7F7FC094800BF00BF00BF87
:1031A00050E8002F42F0400140E80012002AF7D119
:1031B00000BF00BFBDE8F081204100202443002073
:1031C0000038014070B500BF2F48C069C0F34010FF
:1031D00000B300BF2C48808CC0B205462B49B1F823
:1031E0000012481CC11700EBD1514912A0EB41213C
:1031F0008CB22648B0F80202A04207D02348B0F8AB
:10320000000222490D540846A0F800421E48FFF76C
:103210003BFC00BF00BF1C48C069C0F38010F8B180
:1032200000BF19480068C0F38010C8B100BF40203B
:103230001549086200BF1548B0F806041349B1F8F3
:10324000081488420DDA1148B0F80644601C0F4A91
:10325000A2F8060402F50170015D0B48FFF793FC2C
:1032600011E0094800BF00BF00BF50E8002F22F066
:10327000400140E80012002AF7D100BF00BF002043
:10328000024981F8040470BD00380140204100204B
:1032900010B540F20A410248FDF79FFB10BD000047
:1032A0002041002000BFFEE710B5044610214FF07A
:1032B0009040FFF73CFA08214FF09040FFF737FAB3
:1032C0002046FFF7F9FD10214FF09040FFF745FA37
:1032D00010BD10B5044610214FF09040FFF727FABB
:1032E00008214FF09040FFF738FA2046FFF7E4FD41
:1032F00010214FF09040FFF730FA10BD03B4019851
:103300004100009850EAC12018BF04204A0D18BFA0
:1033100040F0010040F2FF72B2EB515F08BF40F095
:103320000200012808BF052002B0704770B50446AE
:10333000002508E02168481C20600878303805EB3B
:10334000850100EB41052168087800F004F80028A9
:10335000F0D1284670BD0146302903DB392901DC54
:10336000012070470020FCE730380A2801D20120F4
:10337000704700207047000010B54421074800F056
:1033800020FE00221E21064823F0F0FB05490860BC
:1033900002F006F900200449087010BDA84500207D
:1033A00081560008B4000010B00000102DE9F04F65
:1033B00087B007460C4615462946204600F069F9B5
:1033C00020B94FF0FF3007B000F0C1B80022294605
:1033D000204600F000F908B10020F4E7002620465E
:1033E00010F029FC401E00B20490204610F0A9FB0A
:1033F000401E00B2039068886188401A0FFA80FA74
:10340000BAF1000F16DD2088ADF814006088ADF821
:103410001600A088ADF818006088504400B2ADF8DE
:103420001A003046711C4EB207EBC00005990160CE
:1034300006994160E8886188411A0398401A0FFA9A
:1034400080FBBBF1000F1CDDB5F90600B4F90610D6
:10345000884216DA2088ADF81400E888ADF8160026
:10346000A088ADF81800E888584400B2ADF81A00FA
:103470003046711C4EB207EBC000059901600699F9
:103480004160B5F90200B4F90210884202DDB5F9D5
:10349000020001E0B4F902008046B5F90600B4F973
:1034A0000610884202DAB5F9060001E0B4F9060018
:1034B00002900298A0EB08000FFA80F92888218872
:1034C000401A00B20190019800281BDDB9F1000FED
:1034D00018DD2088ADF81400ADF816802188019819
:1034E000084400B2ADF8180008EB090000B2ADF8CE
:1034F0001A003046711C4EB207EBC00005990160FE
:1035000006994160A8882188411A0498401A00B29F
:1035100000900098002818DDA888ADF81400ADF8D8
:103520001680A9880098084400B2ADF8180008EB8E
:10353000090000B2ADF81A003046711C4EB207EB1C
:10354000C000059901600699416030463BE730BCF8
:10355000BDE8C08F30B50346B1F90040B2F9005064
:10356000AC4202DDB1F9004001E0B2F900401C803C
:10357000B1F90240B2F90250AC4202DDB1F90240A9
:1035800001E0B2F902405C80B1F90440B2F90450A4
:10359000AC4202DAB1F9044001E0B2F904409C8087
:1035A000B1F90640B2F90650AC4202DAB1F9064070
:1035B00001E0B2F90640DC800120B3F90040B3F924
:1035C0000450AC4205DCB3F90240B3F90650AC42FA
:1035D00000DD002030BDF8B504460D461646002734
:1035E000B4F90000B5F90010884212DBB4F902000A
:1035F000B5F9021088420CDBB4F90400B5F90410E7
:10360000884206DCB4F90600B5F90610884200DCF1
:1036100001270FB90020F8BD0EB90120FBE7208873
:10362000ADF800006088ADF80200324669462846D1
:1036300000F0A7F808B90020EDE7A088ADF8000079
:103640006088ADF8020032466946284600F099F8D5
:1036500008B90020DFE72088ADF80000E088ADF869
:10366000020032466946284600F08BF808B900206F
:10367000D1E7A088ADF80000E088ADF8020032463E
:103680006946284600F07DF808B90020C3E701200C
:10369000C1E70246B2F90000B1F90430984213DCE8
:1036A000B2F90400B1F9003098420DDBB2F9020022
:1036B000B1F90630984207DCB2F90600B1F90230E0
:1036C000984201DB012070470020FCE7F8B5044672
:1036D0000D461646B4F90400B5F90010884211DB16
:1036E000B4F90600B5F9021088420BDBB4F900000A
:1036F000B5F90410884205DCB4F90200B5F90610EA
:10370000884201DD0120F8BD0EB90020FBE72088CA
:10371000ADF800006088ADF80200324669462846E0
:1037200000F02FF808B10020EDE7A088ADF8000008
:103730006088ADF8020032466946284600F021F85C
:1037400008B10020DFE72088ADF80000E088ADF880
:10375000020032466946284600F013F808B10020FE
:10376000D1E7A088ADF80000E088ADF8020032464D
:103770006946284600F005F808B10020C3E701209B
:10378000C1E72DE9FC5F05460E4614464FF0000ADE
:10379000B6F90000B5F90010884213DBB6F9000055
:1037A000B5F9041088420DDCB6F90200B5F9021033
:1037B000884207DBB6F90200B5F90610884201DC41
:1037C0004FF0010ABAF1000F02D1002000F0A2B8B8
:1037D000002C01DC0120F9E7284610F02CFA834682
:1037E00000EBDB704710284610F0ABF9834600EB86
:1037F000DB704FEA6008474501DA384600E0404692
:1038000081464C4500DD4C462888ADF800002888EC
:10381000204400B2ADF804006888ADF80200688862
:10382000204400B2ADF80600002231466846FFF79A
:10383000A8FF80B1BDF80400204400B2ADF8040038
:10384000BDF80600204400B2ADF8060031466846D7
:1038500020F0C9F8BAE7E888001B00B2ADF8020012
:10386000E888ADF80600002231466846FFF789FF78
:1038700080B1BDF80400204400B2ADF80400BDF8EA
:103880000200001B00B2ADF802003146684620F08D
:10389000AAF89BE7A888001B00B2ADF80000A88832
:1038A000ADF80400002231466846FFF76AFF80B198
:1038B000BDF80000001B00B2ADF80000BDF802002A
:1038C000001B00B2ADF802003146684620F08BF8CC
:1038D0007CE76888ADF802006888204400B2ADF843
:1038E0000600002231466846FFF74BFF80B1BDF865
:1038F0000000001B00B2ADF80000BDF80600204437
:1039000000B2ADF806003146684620F06CF85DE77D
:1039100001205BE73CBCBDE8C09F10B5B1F90030A9
:10392000B2F90040A34202DAB1F9003001E0B2F985
:1039300000300380B1F90230B2F90240A34202DA4A
:10394000B1F9023001E0B2F902304380B1F904303C
:10395000B2F90440A34202DDB1F9043001E0B2F94A
:1039600004308380B1F90630B2F90640A34202DD8B
:10397000B1F9063001E0B2F90630C38010BD000095
:10398000F8B5054623F07AF807460020009035B1D7
:103990004C49E8680860284623F0F8F903E012F083
:1039A000FBFA484908604749096808691FF0ACFEFE
:1039B00044480068406920B14249096848691FF0DD
:1039C000A3FE40490968C8691FF09EFE3D49096889
:1039D000086A1FF099FE3B480068006938B900206A
:1039E00038490968A1F8500100BF00BFF8BD20F0B8
:1039F000AFF826F073F825F04DFD32480068B0F8B6
:103A00005001002856D02F4800680068007C00F064
:103A1000010040B32B4800680068C068406810B3DC
:103A2000002419E02748006800F59870005D00B197
:103A300010E02448006800F5AC7000F024FB064656
:103A400020480068303000EBC400016831604068F5
:103A5000706000BF601C84B21A480068B0F8500162
:103A6000A042DFDC00BF4FF48071164800683030A0
:103A70001AF00AF820211348006800F598701AF02F
:103A800003F800200F490968A1F85001384622F0D8
:103A9000E7FF00900B4800680068406A50B1094990
:103AA000096808680749096809684B6A06490A688D
:103AB0000099984719F060FD00F03EF800F006F814
:103AC00000BF93E7780000107400001010B50024C8
:103AD00016E0C4EBC4000C4951F8200030B1C4EB2F
:103AE000C401094A52F8210019F0F8FDC4EBC401E1
:103AF000054A02EB81001C2119F0C6FF601CC4B20C
:103B0000042CE6DB10BD0000844600200146094A73
:103B100010680BE042688A4202D002688A4204D1EF
:103B2000027E22F00102521C027640690028F1D187
:103B300070470000580000107047000010B50421C5
:103B4000014800F03EFA10BD9C45002010B5202130
:103B5000014800F036FA10BDB44500202DE9FF47BA
:103B600004460D4616461F46DDE90C896FB9B8F5C7
:103B7000807F0AD1002020806080681E00B2A08073
:103B8000701E00B2E08000F0EFB8002000900190BD
:103B900002900390ADF80450ADF80A60ADF80C50F7
:103BA000ADF80E604B464246394668461FF04EFE61
:103BB0004B464246394601A81FF048FE4B46424656
:103BC000394602A81FF042FE4B464246394603A83A
:103BD0001FF03CFEBDF90000BDF90410884202DA76
:103BE000BDF9000001E0BDF90400BDF90810BDF900
:103BF0000C20914202DABDF9081001E0BDF90C1069
:103C000088420BDABDF90000BDF90410884202DADF
:103C1000BDF900000DE0BDF904000AE0BDF908009F
:103C2000BDF90C10884202DABDF9080001E0BDF9C7
:103C30000C00801E00B22080BDF90000BDF9041008
:103C4000884202DDBDF9000001E0BDF90400BDF9C4
:103C50000810BDF90C20914202DDBDF9081001E009
:103C6000BDF90C1088420BDDBDF90000BDF9041050
:103C7000884202DDBDF900000DE0BDF904000AE054
:103C8000BDF90800BDF90C10884202DDBDF908003D
:103C900001E0BDF90C00801C00B2A080BDF902104B
:103CA000BDF90600814202DABDF9020001E0BDF96A
:103CB0000600BDF90A20BDF90E108A4202DABDF9EC
:103CC0000A1001E0BDF90E1088420BDABDF90210AE
:103CD000BDF90600814202DABDF902000DE0BDF92E
:103CE00006000AE0BDF90A10BDF90E00814202DAB1
:103CF000BDF90A0001E0BDF90E00801E00B260802F
:103D0000BDF90210BDF90600814202DDBDF90200D5
:103D100001E0BDF90600BDF90A20BDF90E108A4286
:103D200002DDBDF90A1001E0BDF90E1088420BDD7D
:103D3000BDF90210BDF90600814202DDBDF90200A5
:103D40000DE0BDF906000AE0BDF90A10BDF90E004C
:103D5000814202DDBDF90A0001E0BDF90E00801CC0
:103D600000B2E08000BF0EE70FBCBDE8F0870000A6
:103D70002DE9F743054616460024134C22F07EFE3B
:103D80008046334629462046019A17F0CDFB074668
:103D90005FB900BF00BF2C21204619F075FE4FF01F
:103DA0000040A062002000F011B80020A062E0698D
:103DB00018B9404622F054FEE061E06908B90120DC
:103DC000E0612046EFE70000D845002006BCBDE8D2
:103DD000F883000010B514210D4800F0F2F817F038
:103DE0005DFB044614B900BF00BF10BD0949204661
:103DF00017F02FFC0849204617F02DFC07492046F4
:103E000017F02BFC0649204617F021FC00BFECE719
:103E1000C04500206DAC010855B10108A3B30108ED
:103E200035AC01082DE9FF4104460F4614B912F0E4
:103E3000B3F804460CB900F07EB8204612F045F9FC
:103E400000B9F8E794F82800C0F3800010B100BF73
:103E500000BFF0E71FB90020A4F85001EBE70020F5
:103E6000ADF80800ADF80A00204612F0ADF8401E8B
:103E700000B2ADF80C00204612F00CF9401E00B262
:103E8000ADF80E0002AA39466846FFF763FB064606
:103E900006B9D0E72068007CC0F3400060B102980A
:103EA0002063039860630120A4F85001606810B19A
:103EB000606822F077FFBEE72068806918B120684B
:103EC00069468269904700250BE004F1300000EB61
:103ED000C50100226846FFF77EFB00B1ABE7681C16
:103EE00085B2B4F85001A842EFDCB4F850012028A4
:103EF00009DAB4F8502104F1300101EBC20069463F
:103F00000FF0A2FD0BE00020A4F85001B4F85021FE
:103F100004F1300101EBC20002A90FF095FDB4F8E5
:103F20005001401CA4F85001606810B1606822F094
:103F300039FF00BF7FE703BCBDE8FC8170B50546D3
:103F4000284600F013F8044600260CE021462846D7
:103F500000F024F806462146284600F0C0F8204626
:103F600019F0BCFB3446002CF0D170BD014609B9F4
:103F7000002070474868FCE770B5064600243046CC
:103F8000FFF7F4FF054605E0641C2946304600F0C3
:103F900005F80546002DF7D1204670BD02460B46B8
:103FA0001068001D03441868704702460B461068ED
:103FB000034418687047014609B9002070478868B3
:103FC000FCE7002242608260CA1C22F0030101600B
:103FD000704770B50446216801F1080019F0A0FA95
:103FE0000546A5B100222946204623F08FFF294629
:103FF0002046626823F07CFF606820B12A46204694
:10400000616823F083FF6560A06800B9A560284659
:1040100070BD2DE9F04106460D4606B115B90020E8
:10402000BDE8F0813046FFF7A1FFA84206D1304637
:10403000FFF7CFFF044624BB0020F1E7316801F110
:10404000080019F06DFA04460CB90020E8E729468B
:104050003046FFF7AAFF074622463946304623F08E
:1040600047FF3A462146304623F050FF2246294674
:10407000304623F04BFF2A462146304623F038FFD6
:1040800000BF2046CCE770B50446216801F1080066
:1040900019F046FA0546A5B100222946204623F02C
:1040A00027FF29462046A26823F030FFA06820B1F0
:1040B0002A462046A16823F01BFFA560606800B96E
:1040C0006560284670BD014609B9012070474868FF
:1040D00018B9886808B90120F8E70020F6E72DE94B
:1040E000F04104460D460CB9BDE8F0812046FFF7CB
:1040F0003DFFA8420FD129462046FFF74FFF6060E1
:10410000606810B90020A0602FE00022204661689E
:1041100023F0FCFE29E02046FFF74DFFA8420FD117
:1041200029462046FFF741FFA060A06810B9002093
:1041300060601AE000222046A16823F0D9FE14E056
:1041400029462046FFF731FF064629462046FFF75D
:1041500025FF07463A463146204623F0C9FE32463F
:104160003946204623F0D2FE00BF00BFBCE710B5A1
:1041700004462068806818B120682146826890470C
:104180002068006828B12068006820602046FFF79A
:10419000EEFF10BD0146886818B18868B0F91600B6
:1041A00070470020FCE70146886818B18868807E67
:1041B000800970470020FCE72DE9F04104460D46D8
:1041C00016461DB916B90120BDE8F08120461AF047
:1041D0006BFBA068008A284400B2A1680882A0682E
:1041E000408A304401B2A068418201233246294608
:1041F00020461DF0FBFD00220B21204615F008FE95
:104200000746012F01D03846DEE720461DF016FD97
:104210000120D9E7F7B582B004460E4614B90498D8
:1042200005B0F0BD00BF6222314620461CF034FECE
:104230000190019D00BFBDB12868A8B100BF6322F5
:10424000314620461CF028FE01900198C0B2074676
:104250004FB13A462B682846049998470190BDF81B
:104260000400ADF8100000BF0498D9E72DE9F04F25
:1042700095B004468B4691469A461E9D608C20F070
:10428000080008306084A4F820902A895946204606
:104290001CF002FE1490A4F820A02A89594620465A
:1042A0001CF0FAFD1390608C20F008006084DDE9BA
:1042B000131088420CD1DDE91310884208D1BDF8F3
:1042C0005000BDF84C10884202D115B000F096B8ED
:1042D000A4F820902A89594620461CF0DDFD149050
:1042E000A4F820A0594620460DF0C1F81290298963
:1042F000129A1068149A21F0FBF928890B2833D1FF
:1043000047F6FF711498884202D0139888422BD147
:1043100020461DF09CF8009000EBD070471020461E
:104320001BF02CFB009000EBD0704FEA600847F6C2
:10433000FF711498884208D1781C08F10101884265
:1043400000DA01E008F10100149047F6FF711398BC
:10435000884208D1781C08F10101884200DA01E0A6
:1043600008F10100139000BF2048FFF732FE064617
:1043700006B9AAE71498F060139830613460288970
:10438000B080C6F808B001A80EF022FC314601A8A2
:104390000EF0D0FC164901A80EF09DFC15480390C4
:1043A00000BF154901A80EF0A4FCFF22002101A8BE
:1043B0000EF0B0FC298801A80EF0A2FC698801A8C3
:1043C0000EF084FCE868089000BF01A8002190F876
:1043D000422061F3000280F8422000BF2869079064
:1043E00001A80EF0BFFC00BF6FE70000CC45002025
:1043F000DDD402088BD70208B5D6020830BCBDE870
:10440000C08F000010B514210148FFF7DAFD10BD80
:10441000CC4500202DE9FE4F04460F4690464FF054
:10442000000900254CE1E06800EBC5004068C0F3DE
:10443000406000B143E1E16801EBC501496821F04A
:104440007F401FF027F9064626EA070008B9012039
:1044500000E00020029026EA080008B9012000E0F0
:1044600000200190DDE90101814270D0E06850F840
:1044700035A04FF0000B6A461021504620F00EFD8B
:1044800010B14FF0010B98E06A461121504620F020
:1044900005FD10B14FF0010B8FE06A461221504626
:1044A00020F0FCFC10B14FF0010B86E06A461321AE
:1044B000504620F0F3FC10B14FF0010B7DE06A464E
:1044C0001521504620F0EAFC10B14FF0010B74E0CA
:1044D0006A461421504620F0E1FC10B14FF0010B68
:1044E0006BE06A460A21504620F0D8FC10B14FF02C
:1044F000010B62E06A466B21504620F0CFFC10B100
:104500004FF0010B59E06A466C21504620F0C6FC82
:1045100010B14FF0010B50E06A460121504620F0E7
:10452000BDFC10B14FF0010B47E06A460421504634
:1045300020F0B4FC10B14FF0010B3EE06A460221BE
:10454000504620F0ABFC18B14FF0010B35E0B5E060
:104550006A460321504620F0A1FC10B14FF0010B38
:104560002BE06A460521504620F098FC10B14FF030
:10457000010B22E06A460621504620F08FFC10B164
:104580004FF0010B19E06A463221504620F086FCBC
:1045900010B14FF0010B10E06A466E21504620F03A
:1045A0007DFC10B14FF0010B07E06A466D215046CB
:1045B00020F074FC08B14FF0010BBBF1000F02D0EA
:1045C000032000F085B86A466921504620F066FC59
:1045D00010B14FF0020970E06A466A21504620F09F
:1045E0005DFC10B14FF0020967E06A466E2150464B
:1045F00020F054FC10B14FF002095EE06A466D21D4
:10460000504620F04BFC10B14FF0020955E06A46CD
:104610003721504620F042FC10B14FF002094CE027
:104620006A463821504620F039FC10B14FF002099B
:1046300043E06A463521504620F030FC10B14FF07F
:1046400002093AE06A464021504620F027FC10B1AA
:104650004FF0020931E06A464521504620F01EFC29
:1046600010B14FF0020928E06A464121504620F07F
:1046700015FC10B14FF002091FE06A464221504676
:1046800020F00CFC10B14FF0020916E06A464321FD
:10469000504620F003FC10B14FF002090DE06A46CD
:1046A0004921504620F0FAFB10B14FF0020904E016
:1046B000B9F1000F01D14FF0010900BF00BF6D1C1F
:1046C000608CC0F30510A8423FF6ADAE484678E7CF
:1046D0001EBCBDE8E08F0000014800687047000084
:1046E0007800001070470146C1F30412072A00DD6C
:1046F0000722D0B27047000001464FF6FF7081429A
:1047000001D11F20704709B90020FBE7712902DAA7
:104710000948405CF6E7A1F1710081B207480068E2
:1047200038B107480068814203D204480068405C01
:10473000E8E70020E6E700006C2E0308A400002054
:10474000B800002010B518210348FFF73AFC0120FB
:1047500022F040FA10BD0000784500202DE9F0411C
:1047600005460F4616460DB9BDE8F0812846FCF710
:1047700096F88046394628460A4A12689047074606
:10478000E8193146074A1268904706463C4603E05E
:10479000A019285C2855641CA8EB0600A042F7D29B
:1047A00000BFE1E7E00000102DE9F04106460C46AD
:1047B00017461D4629463046084A12689047206031
:1047C000206830B1296888190021044A126890478E
:1047D00000E000203860BDE8F0810000D800001043
:1047E0002DE9F04F87B004460F4692469846DDE922
:1047F00010560DB1002028801CB9002007B000F031
:1048000085B8207808B90020F8E70FB90020F5E74F
:104810004FF0000906F0020010B906F0040098B14C
:10482000002000E0401C215C0A2905D0215C0D29F4
:1048300002D0215C0029F5D1215C01B1401C15B1E9
:104840004FF0FF312980D9E706F0020008B141F6A8
:10485000FF7800200690059038E00020049005982D
:1048600008B9012000E0002006A904AACDE90062F1
:10487000CDE902100599601843465246394622F0A8
:104880000BFC83460498A8EB00000FFA80F804980C
:1048900048440FFA80F9BBF1000F00D11CE00598E5
:1048A0005844059020780A2802D020780D2800D19D
:1048B00012E00598205C0A2803D00598205C0D289A
:1048C00003D10598401C059006E000BF0598205CC8
:1048D00010B1B8F1000FC0DC00BF059870B905A990
:1048E0002046094A12689047834635B1002259464E
:1048F000384615F014FC0FFA80F900BF0DB1A5F889
:10490000009005987AE70000D800001030BCBDE8A0
:10491000C08F00002DE9F04706468846174606B1CD
:104920000FB9BDE8F0873046FBF7B9FF814638463E
:10493000FBF7B5FF044604B9F3E704EB090A414667
:1049400030460B4A126890478046554603E0281BC4
:10495000305C70556D1E08EB0400A842F7D906EBD9
:1049600008002246394619F049F800BFD9E700008F
:10497000E0000010024600200FA31B788B4211D1EB
:1049800013781BB90123137001200BE01378012B5E
:1049900002D10023137005E01378022B02D100230B
:1049A000137001201378012B04D1202901D1022397
:1049B00013700120704700002300000073B582B01F
:1049C000064603980190324600210846019B22F0DA
:1049D00089FE0446002001900025601C18F0A0FD0F
:1049E000054615B9002004B070BD00202855324698
:1049F000611C2846039B22F075FE2846F3E72DE94B
:104A0000F04781460E4614461F46DDF820A0354685
:104A10001BE0600800FB075529464846D047B0F127
:104A2000000809DD04F0010080F00100C0EB54042F
:104A3000E8190546064608E0B8F1000F02DA6408F6
:104A4000354602E02846BDE8F087002CE1D1002081
:104A5000F9E72DE9FF4F85B08346DDE9158ADDE9E9
:104A60001349DDE91775129E05F00200F8B94FB140
:104A700005F0010030B1B9F1000F02D105F00C00D2
:104A800000B17F1E03E030222046641C325454459E
:104A900001D2202CF7D303E030222046641C32548C
:104AA00005F0010018B1BC4201D2202CF4D305F06E
:104AB0001000B0B305F4806050B94CB1544501D03A
:104AC000BC4205D1641E1CB1B8F1100F00D1641EA8
:104AD000B8F1100F09D105F0200030B9202C04D214
:104AE00078222046641C325415E0B8F1100F09D129
:104AF00005F0200030B1202C04D258222046641C3E
:104B0000325408E0B8F1020F05D1202C03D2622202
:104B10002046641C3254202C03D230222046641CD0
:104B20003254202C16D2B9F1000F04D02D22204689
:104B3000641C32540EE005F0040020B12B22204604
:104B4000641C325406E005F0080018B1202220460B
:104B5000641C3254CDE90275CDE90064584606A9BB
:104B60000EC900F0ABF809B000F000B830BCBDE8E9
:104B7000C08F2DE9FF4F8FB08046DDE91FABDDE927
:104B80001D96219D1C9C00270CB925F0100505F4ED
:104B9000806000B1E4B100BFB4FBF6F106FB114147
:104BA000C8B20A2802DA00F1300107E005F020015E
:104BB00009B1412100E0612101440A39CBB23946F3
:104BC0007F1C07AA5354B4FBF6F40CB1202FE3D397
:104BD00007A8CDE904AB8DE881020396069540460F
:104BE00010A90EC9FFF735FF13B000F000B830BCB4
:104BF000BDE8C08F2DE9FF4F8FB0DDE9217BDDF8E7
:104C00009080209EDDE91C454FF00009002184EAD8
:104C100001006940084301D128F0100808F48060C1
:104C200028B1002184EA0100694008432DD000BF6B
:104C300032463B4620462946FBF70CFC02F0FF0AB1
:104C4000BAF10A0F02DA0AF1300007E008F020009A
:104C500008B1412000E0612050440A38C2B2484601
:104C600009F1010907A90A5432463B462046294664
:104C7000FBF7F0FB04460D46002184EA0100694081
:104C8000084302D0B9F1200FD2D32398CDE9036BAA
:104C9000CDE9050807A91E98CDE9001902900FA8D3
:104CA0000FC8FFF7D6FE13B000F000B830BCBDE867
:104CB000C08F9A4200D28854704770472DE9FF5F39
:104CC00005461446DDE90EA6DDE91087A34607F088
:104CD000020078B907F0010060B9B14607E022464A
:104CE000641C2020039B0199A84709F10109C145D3
:104CF000F5D300BF08E02246641C711E0E461AF868
:104D00000100039B0199A847002EF4D107F002008F
:104D100050B105E02246641C2020039B0199A8475E
:104D2000A4EB0B004045F5D3204604B000F000B8DA
:104D300030BCBDE8C09F00002DE9FF4F8BB0074697
:104D400000250C9800B9FA4FEAE20E980078252861
:104D50000AD02A466D1C0E990878DDE90C13B84775
:104D60000E98401C0E90DBE20E98401C0E90002422
:104D700000BF0E9800782B2819D004DC20281ED004
:104D800023282CD123E02D2809D0302827D144F026
:104D900001040E98401C0E9001200A9022E044F07D
:104DA00002040E98401C0E9001200A901AE044F074
:104DB00004040E98401C0E9001200A9012E044F06A
:104DC00008040E98401C0E9001200A900AE044F05E
:104DD00010040E98401C0E9001200A9002E0002062
:104DE0000A9000BF00BF0A980028C2D180460E99E1
:104DF0000878FEF7B0FA20B10EA8FEF797FA8046C1
:104E000012E00E9800782A280ED1189901C918913D
:104E1000002804DA44F00204C0F1000800E08046F3
:104E20000E99491C0E9100BF4FF000090E980078B2
:104E30002E281FD144F480640E98401C0E900E99C9
:104E40000878FEF788FA20B10EA8FEF76FFA8146BF
:104E500010E00E9800782A280CD1189901C91891F1
:104E6000002801DD014600E0002189460E99491C19
:104E70000E9100BF0E9800786C280AD004DC6828D8
:104E800016D06A2835D128E0742820D07A2830D16D
:104E900029E044F480740E98401C0E900E9800781F
:104EA0006C2804D144F400740E98401C0E9021E04C
:104EB00044F080040E98401C0E900E9800786828EC
:104EC00004D144F040040E98401C0E9012E044F4CB
:104ED00080740E98401C0E900CE044F400740E9800
:104EE000401C0E9006E044F480740E98401C0E9016
:104EF00000E000BF00BF0E98007869281DD00EDCCE
:104F0000622821D006DC25287ED050281AD05828C7
:104F10007BD115E0632879D06428F9D10CE073289F
:104F200075D004DC6F280ED07028F1D109E0752807
:104F300004D07828ECD102E000BF00BF00BF00BF62
:104F400000BF00BF00BF00BF0E980078782803D0D4
:104F50000E980078582801D1102623E00E9800788A
:104F6000702803D00E98007850280CD1102644F0F9
:104F7000100444F480740E984078562812D10E988C
:104F8000401C0E900EE00E9800786F2801D1082684
:104F900008E00E980078622801D1022602E00A2675
:104FA00024F010040E980078582803D00E9800784A
:104FB000502801D144F020040E980078692805D0CB
:104FC0000E980078642801D024F00C0404F480606A
:104FD00008B124F001040E980078692803D00E98D7
:104FE000007864287CD104F40070B8B31898C01D10
:104FF00020F007001890D0E900AB189A08321892F8
:105000000020CDE9069803E073E17CE1F2E01CE1C9
:10501000CDE904600894BAEB00017BEB000001DAF3
:10502000012000E00020002102900846B1EB0A01B7
:1050300070EB0B0002DA5046594605E000200146AD
:10504000B0EB0A0061EB0B01CDE900012A463846BE
:10505000DDE90C13FFF7CEFD0546C7E0FFE704F4DA
:105060008070D0B1189850F804AB18904FEADA70FD
:10507000CDE9039802960594BAF1000F01DD51467F
:1050800001E0CAF10001CDE900102A463846DDE909
:105090000C13FFF76EFD0546A8E004F0400028B1B0
:1050A000189810F8041B1890C8B20DE004F08000A6
:1050B00028B1189830F8041B189008B204E018982A
:1050C00000681899091D189182464FEADA70CDE9F7
:1050D000039802960594BAF1000F02DD514602E0F2
:1050E0000BE0CAF10001CDE900102A463846DDE99F
:1050F0000C13FFF73EFD054678E00E980078562821
:1051000018D1189850F804AB1890DAF80400006829
:10511000099009980090DAF800300D98421B0C981D
:1051200041193846FFF708FE0544002009905DE06C
:10513000BB4C000804F40070D0B11898C01D20F0DA
:105140000700CDE90698089418900020CDE9046086
:105150000290189903C9189A08321892CDE90001F3
:105160002A463846DDE90C13FFF744FD05463DE0CD
:1051700004F4807098B10022CDE90398029605945A
:10518000189800681899091DCDE9000218912A465F
:105190003846DDE90C13FFF7ECFC054626E004F089
:1051A000400028B1189810F8041B1890C8B20DE000
:1051B00004F0800028B1189830F8041B189088B2C9
:1051C00004E0189800681899091D1891824600207B
:1051D000CDE900A0CDE90398029605942A46384609
:1051E000DDE90C13FFF7C5FC054600BF0E98401C17
:1051F0000E9093E0012604F0020050B905E02A4623
:105200006D1C2020DDE90C13B8473046761C404564
:10521000F5D3189911F8043BD8B22A466D1C1891A1
:10522000DDE90C13B84704F0020050B105E02A464E
:105230006D1C2020DDE90C13B8473046761C404534
:10524000F5D30E98401C0E9068E0189850F804AB07
:1052500018905046B9F1000F01D0494601E04FF0D7
:10526000FF310A46014600E0491C0B781BB1131EB2
:10527000A2F10102F8D10E1A04F4806028B14E4563
:1052800001D2304600E04846064604F0020050B91C
:1052900005E02A466D1C2020DDE90C13B847304696
:1052A000761C4045F5D306E01AF8010B2A466D1C22
:1052B000DDE90C13B8479AF8000040B104F48060AF
:1052C0000028F1D0B9F10000A9F10109ECD104F0F6
:1052D000020050B105E02A466D1C2020DDE90C13C8
:1052E000B8473046761C4045F5D30E98401C0E90CA
:1052F00014E02A466D1C2520DDE90C13B8470E98F2
:10530000401C0E900AE02A466D1C0E990878DDE9D3
:105310000C13B8470E98401C0E9000BF00BF00BF92
:105320000E98007800287FF410AD0D98854201D2C8
:10533000284601E00D98401E02460020DDE90C13CE
:10534000B84728460FB000F000B830BCBDE8C08FA9
:105350002DE9F04104460E46002774B1314620463F
:1053600000F02DF80546B5F5804F05D20C2D01D97A
:10537000284600E00C20074600BF3846BDE8F08113
:10538000024600BF481E084018B100BF00BF00BF62
:10539000FEE700BF481E1040101A704710B50246C5
:1053A0004B1E13444C1E23EA040000BF4B1E0B404F
:1053B0001BB100BF00BF00BFFEE700BF10BD02462B
:1053C00000BF481E084018B100BF00BF00BFFEE785
:1053D00000BF481E10444B1E984370472DE9F04112
:1053E00080460E46444601206086002500270DE0D9
:1053F00056F827001DA1FBF739FB10B1681C85B2D8
:1054000002E0608E401C6086781C87B256F8270048
:1054100020B156F8270000780028E9D1208EA84254
:1054200001D1BDE8F081A06A20B1A06A18F056F958
:105430000020A062E06A20B1E06A18F04FF9002075
:10544000E062E80018F06CF8A062680018F068F8F4
:10545000E062A06A08B1E06A00B900256900E06A6C
:1054600018F012FB258600BFDBE700000A000000F1
:105470002DE9F84F81460E46924699F8090000F052
:105480000700022801D1304600E0504683465645C9
:1054900001DD304600E050460746032000EB4700A0
:1054A00020F0030000F1100536480068364909680D
:1054B000A0EB0108002405EB080034490968884284
:1054C00006D230480468606820F00040606033E035
:1054D0002E480068854221D813E04FF0FF3000903D
:1054E000002269462A480CF0BAFE00226946294883
:1054F0000CF0B5FE2348006823490968A0EB0108B9
:1055000000BF08EB0500214909688842E5D81D481D
:105510000468606820F0004060600DE0284617F0E5
:10552000FFFF044614B9002000F036B8606820F090
:10553000004000F10040606032465946484602F0A3
:105540000DF82060606800F04040401C60606068BA
:1055500020F080406060A781A4F80EB06068C00FA2
:1055600020B1204600F11001A16008E00548006864
:105570001030A060034800682844024908602046B3
:10558000D2E70000C8000020A0000020C4000020D6
:1055900011FE0008DF22010818BCBDE8E08F000002
:1055A00010B50120074908700748FEF7DFFC20B955
:1055B0000648006821F0EAFB03E00448006821F097
:1055C000F1FB10BDB0000010A8450020B400001091
:1055D00010B5044694F84200C0F3400070B9B4F826
:1055E000400000280ADDB4F840004FF6FF71884201
:1055F00004D0B4F84000401EA4F84000B4F84000C5
:10560000D0B9A06B20B194F84200C0F3400098B12B
:1056100021461A48FEF763FDFFF7C2FFE06810B1AC
:105620002046E1688847206910B1204621698847F3
:10563000204618F053F81FE0E06B40422063A06B57
:10564000D0B194F84210C1F3400111B9616B4942E5
:10565000216394F842104908C94394F8422061F349
:10566000410284F84220206AA16A2162A062E06AB5
:10567000A16BE162A06300BF10BD0000A84500203F
:105680002DE9F04180464248006821F0E9F90646DC
:105690004048007880F001003E4908703E48FEF71F
:1056A00065FC04466BE000203C49087094F8420019
:1056B000C0F3800037490978884253D035480178D3
:1056C0003034A07C61F38200A07420688719A07C2C
:1056D000303CC0F3C00010BB206B00281FDC002F43
:1056E0001DDB94F8420000F0010060B9606950B120
:1056F0002046616988470546206A28442062A06ADE
:105700002844A06200BFA06810B12046A168884765
:1057100094F8420020F00800083084F84200206B22
:1057200030442063206B00281BDBD4E90B10884237
:1057300001DDE06A20632046E16988470546606A2A
:10574000A84206D06562606818B12946D4E9000213
:105750009047D4E90B10884202DB2046FFF738FF60
:1057600000BF00BF0D48007820B10B48FEF7FEFBDC
:10577000044604E021460848FEF710FC0446002CCD
:1057800091D121F07BF902490860BDE8F081000069
:10579000AC000010B1000010A8450020B0000010BF
:1057A00070B504460D46606818B129466068FFF779
:1057B000F7FF206818B1294620462268904770BD3F
:1057C00070B505460C46A1B228460EF06AF870BDC9
:1057D00070B505460C46A1B228460EF0B3F870BD70
:1057E0002DE9FF4F8FB01F46DDF888801C980E9082
:1057F0001D980D9000200B902398042806D00528B2
:1058000009D006280CD014281AD114E000200C90DE
:105810004FF0020917E001200C904FF0030912E04D
:1058200001200C904FF00209FEF756FF054628684C
:10583000008F0B9007E001200C904FF0020902E06E
:1058400013B000F093B900BF002489E11E986043B3
:105850000E9901EB20201C901F9860430D9901EBDD
:1058600020201D901C9805121D980612002D07DBA4
:105870001098854204DA002E02DB1198864203DB81
:10588000002008F8040069E11C98C0B20A901D9835
:1058900000F0FF0A0A98802807DA4FF0FF3B0A98C9
:1058A000C0F17F0040000A9005E04FF0010B0A981C
:1058B000803840000A90BAF1800F07DA4FF0FF30CD
:1058C0000990CAF17F004FEA400A05E001200990E3
:1058D000AAF180004FEA400A0F98089006FB07F0F3
:1058E00000FB09F005FB090108980844089005EB46
:1058F0000B0000287EDB05EB0B011098401E814257
:1059000078DC099830440028F4DB099831181198A4
:10591000401E8142F4DC0898079008980BFB0900B0
:105920000690099800FB07F1089801FB0900059013
:105930000C9800287FD0239B052B06D1079B9878D5
:10594000059B9978069B9A783BE0239B142B18D1F2
:10595000DDF844C007FB0CFCDDF83CE00EEB4C032B
:1059600006FB073C1CF8050006FB073CAC441CF892
:105970000B20DDF824C0B4440CFB073C1CF80510D8
:105980001FE0239B062B19D1079B1B88BDF82CC059
:1059900063450BD0059B1B88BDF82CC0634505D023
:1059A000069B1B88BDF82CC0634503D1002308F873
:1059B0000430D3E0FF20FF21FF2202E0FF20FF217F
:1059C000FF22814207D001FB0AF3CAF5807C00FB6D
:1059D0000C33C3F30721824209D00A9B5343DDF8FD
:1059E00028C0CCF5807C00FB0C33C3F307228B1856
:1059F0005B1000E059E008F8043018F8043003B9EF
:105A0000ACE0079B93F800C05B780CEB03239BB2E0
:105A10000493059B93F800C05B780CEB03239BB2C7
:105A20000393069B93F800C05B780CEB03239BB2B7
:105A300002930CE0FFE7079800880490069800881E
:105A40000290059800880390FF2008F80400BDF834
:105A50001000BDF80C1088420CD1BDF81000BDF844
:105A60000810884206D1219800EB4400BDF81010C0
:105A7000018019E00AF0FF02DDE9030110F072F87D
:105A800003900A98C2B20499029810F06BF8029041
:105A90007F22DDE9020110F065F80190219800EB0A
:105AA0004400BDF80410018057E008990A7849784D
:105AB00002EB01218AB2219921F8142023990529AA
:105AC00004D0062905D0142919D10EE00899887848
:105AD00017E0219931F81410BDF82C20914201D122
